{
  "contractName": "InformationStorage",
  "abi": [
    {
      "inputs": [
        {
          "internalType": "string",
          "name": "_name",
          "type": "string"
        },
        {
          "internalType": "string",
          "name": "_id",
          "type": "string"
        },
        {
          "internalType": "address",
          "name": "_reference",
          "type": "address"
        }
      ],
      "name": "addCustomer",
      "outputs": [],
      "stateMutability": "nonpayable",
      "type": "function"
    },
    {
      "inputs": [
        {
          "internalType": "address",
          "name": "_target",
          "type": "address"
        }
      ],
      "name": "findByAddress",
      "outputs": [
        {
          "components": [
            {
              "internalType": "string",
              "name": "name",
              "type": "string"
            },
            {
              "internalType": "string",
              "name": "id_number",
              "type": "string"
            },
            {
              "internalType": "address",
              "name": "identifier",
              "type": "address"
            }
          ],
          "internalType": "struct InformationStorage.Customer",
          "name": "",
          "type": "tuple"
        }
      ],
      "stateMutability": "view",
      "type": "function"
    },
    {
      "inputs": [
        {
          "internalType": "string",
          "name": "_name",
          "type": "string"
        }
      ],
      "name": "findByName",
      "outputs": [
        {
          "components": [
            {
              "internalType": "string",
              "name": "name",
              "type": "string"
            },
            {
              "internalType": "string",
              "name": "id_number",
              "type": "string"
            },
            {
              "internalType": "address",
              "name": "identifier",
              "type": "address"
            }
          ],
          "internalType": "struct InformationStorage.Customer",
          "name": "",
          "type": "tuple"
        }
      ],
      "stateMutability": "view",
      "type": "function"
    },
    {
      "inputs": [
        {
          "internalType": "string",
          "name": "_id",
          "type": "string"
        }
      ],
      "name": "findById",
      "outputs": [
        {
          "components": [
            {
              "internalType": "string",
              "name": "name",
              "type": "string"
            },
            {
              "internalType": "string",
              "name": "id_number",
              "type": "string"
            },
            {
              "internalType": "address",
              "name": "identifier",
              "type": "address"
            }
          ],
          "internalType": "struct InformationStorage.Customer",
          "name": "",
          "type": "tuple"
        }
      ],
      "stateMutability": "view",
      "type": "function"
    }
  ],
  "bytecode": "0x608060405234801561001057600080fd5b5061106f806100206000396000f3fe608060405234801561001057600080fd5b506004361061004c5760003560e01c8063345c2abd146100515780634bd304d01461006d5780634d9a31361461009d57806394bbfc0d146100cd575b600080fd5b61006b60048036038101906100669190610baa565b6100fd565b005b61008760048036038101906100829190610b69565b6101e1565b6040516100949190610da6565b60405180910390f35b6100b760048036038101906100b29190610b69565b61048e565b6040516100c49190610da6565b60405180910390f35b6100e760048036038101906100e29190610b40565b61073b565b6040516100f49190610da6565b60405180910390f35b600060405180606001604052808581526020018481526020018373ffffffffffffffffffffffffffffffffffffffff16815250908060018154018082558091505060019003906000526020600020906003020160009091909190915060008201518160000190805190602001906101759291906109e9565b5060208201518160010190805190602001906101929291906109e9565b5060408201518160020160006101000a81548173ffffffffffffffffffffffffffffffffffffffff021916908373ffffffffffffffffffffffffffffffffffffffff1602179055505050505050565b6101e9610a6f565b6101f1610a6f565b60005b600080549050811015610484576000818154811061023b577f4e487b7100000000000000000000000000000000000000000000000000000000600052603260045260246000fd5b906000526020600020906003020160010160405160200161025c9190610d8f565b60405160208183030381529060405280519060200120846040516020016102839190610d78565b60405160208183030381529060405280519060200120141561047357600081815481106102d9577f4e487b7100000000000000000000000000000000000000000000000000000000600052603260045260246000fd5b906000526020600020906003020160405180606001604052908160008201805461030290610ed8565b80601f016020809104026020016040519081016040528092919081815260200182805461032e90610ed8565b801561037b5780601f106103505761010080835404028352916020019161037b565b820191906000526020600020905b81548152906001019060200180831161035e57829003601f168201915b5050505050815260200160018201805461039490610ed8565b80601f01602080910402602001604051908101604052809291908181526020018280546103c090610ed8565b801561040d5780601f106103e25761010080835404028352916020019161040d565b820191906000526020600020905b8154815290600101906020018083116103f057829003601f168201915b505050505081526020016002820160009054906101000a900473ffffffffffffffffffffffffffffffffffffffff1673ffffffffffffffffffffffffffffffffffffffff1673ffffffffffffffffffffffffffffffffffffffff16815250509150610484565b8061047d90610f3b565b90506101f4565b5080915050919050565b610496610a6f565b61049e610a6f565b60005b60008054905081101561073157600081815481106104e8577f4e487b7100000000000000000000000000000000000000000000000000000000600052603260045260246000fd5b90600052602060002090600302016000016040516020016105099190610d8f565b60405160208183030381529060405280519060200120846040516020016105309190610d78565b6040516020818303038152906040528051906020012014156107205760008181548110610586577f4e487b7100000000000000000000000000000000000000000000000000000000600052603260045260246000fd5b90600052602060002090600302016040518060600160405290816000820180546105af90610ed8565b80601f01602080910402602001604051908101604052809291908181526020018280546105db90610ed8565b80156106285780601f106105fd57610100808354040283529160200191610628565b820191906000526020600020905b81548152906001019060200180831161060b57829003601f168201915b5050505050815260200160018201805461064190610ed8565b80601f016020809104026020016040519081016040528092919081815260200182805461066d90610ed8565b80156106ba5780601f1061068f576101008083540402835291602001916106ba565b820191906000526020600020905b81548152906001019060200180831161069d57829003601f168201915b505050505081526020016002820160009054906101000a900473ffffffffffffffffffffffffffffffffffffffff1673ffffffffffffffffffffffffffffffffffffffff1673ffffffffffffffffffffffffffffffffffffffff16815250509150610731565b8061072a90610f3b565b90506104a1565b5080915050919050565b610743610a6f565b61074b610a6f565b60005b6000805490508110156109df578373ffffffffffffffffffffffffffffffffffffffff16600082815481106107ac577f4e487b7100000000000000000000000000000000000000000000000000000000600052603260045260246000fd5b906000526020600020906003020160020160009054906101000a900473ffffffffffffffffffffffffffffffffffffffff1673ffffffffffffffffffffffffffffffffffffffff1614156109ce5760008181548110610834577f4e487b7100000000000000000000000000000000000000000000000000000000600052603260045260246000fd5b906000526020600020906003020160405180606001604052908160008201805461085d90610ed8565b80601f016020809104026020016040519081016040528092919081815260200182805461088990610ed8565b80156108d65780601f106108ab576101008083540402835291602001916108d6565b820191906000526020600020905b8154815290600101906020018083116108b957829003601f168201915b505050505081526020016001820180546108ef90610ed8565b80601f016020809104026020016040519081016040528092919081815260200182805461091b90610ed8565b80156109685780601f1061093d57610100808354040283529160200191610968565b820191906000526020600020905b81548152906001019060200180831161094b57829003601f168201915b505050505081526020016002820160009054906101000a900473ffffffffffffffffffffffffffffffffffffffff1673ffffffffffffffffffffffffffffffffffffffff1673ffffffffffffffffffffffffffffffffffffffff168152505091506109df565b806109d890610f3b565b905061074e565b5080915050919050565b8280546109f590610ed8565b90600052602060002090601f016020900481019282610a175760008555610a5e565b82601f10610a3057805160ff1916838001178555610a5e565b82800160010185558215610a5e579182015b82811115610a5d578251825591602001919060010190610a42565b5b509050610a6b9190610aa6565b5090565b60405180606001604052806060815260200160608152602001600073ffffffffffffffffffffffffffffffffffffffff1681525090565b5b80821115610abf576000816000905550600101610aa7565b5090565b6000610ad6610ad184610ded565b610dc8565b905082815260208101848484011115610aee57600080fd5b610af9848285610e96565b509392505050565b600081359050610b1081611022565b92915050565b600082601f830112610b2757600080fd5b8135610b37848260208601610ac3565b91505092915050565b600060208284031215610b5257600080fd5b6000610b6084828501610b01565b91505092915050565b600060208284031215610b7b57600080fd5b600082013567ffffffffffffffff811115610b9557600080fd5b610ba184828501610b16565b91505092915050565b600080600060608486031215610bbf57600080fd5b600084013567ffffffffffffffff811115610bd957600080fd5b610be586828701610b16565b935050602084013567ffffffffffffffff811115610c0257600080fd5b610c0e86828701610b16565b9250506040610c1f86828701610b01565b9150509250925092565b610c3281610e5a565b82525050565b6000610c4382610e33565b610c4d8185610e3e565b9350610c5d818560208601610ea5565b610c6681611011565b840191505092915050565b6000610c7c82610e33565b610c868185610e4f565b9350610c96818560208601610ea5565b80840191505092915050565b60008154610caf81610ed8565b610cb98186610e4f565b94506001821660008114610cd45760018114610ce557610d18565b60ff19831686528186019350610d18565b610cee85610e1e565b60005b83811015610d1057815481890152600182019150602081019050610cf1565b838801955050505b50505092915050565b60006060830160008301518482036000860152610d3e8282610c38565b91505060208301518482036020860152610d588282610c38565b9150506040830151610d6d6040860182610c29565b508091505092915050565b6000610d848284610c71565b915081905092915050565b6000610d9b8284610ca2565b915081905092915050565b60006020820190508181036000830152610dc08184610d21565b905092915050565b6000610dd2610de3565b9050610dde8282610f0a565b919050565b6000604051905090565b600067ffffffffffffffff821115610e0857610e07610fe2565b5b610e1182611011565b9050602081019050919050565b60008190508160005260206000209050919050565b600081519050919050565b600082825260208201905092915050565b600081905092915050565b6000610e6582610e6c565b9050919050565b600073ffffffffffffffffffffffffffffffffffffffff82169050919050565b6000819050919050565b82818337600083830152505050565b60005b83811015610ec3578082015181840152602081019050610ea8565b83811115610ed2576000848401525b50505050565b60006002820490506001821680610ef057607f821691505b60208210811415610f0457610f03610fb3565b5b50919050565b610f1382611011565b810181811067ffffffffffffffff82111715610f3257610f31610fe2565b5b80604052505050565b6000610f4682610e8c565b91507fffffffffffffffffffffffffffffffffffffffffffffffffffffffffffffffff821415610f7957610f78610f84565b5b600182019050919050565b7f4e487b7100000000000000000000000000000000000000000000000000000000600052601160045260246000fd5b7f4e487b7100000000000000000000000000000000000000000000000000000000600052602260045260246000fd5b7f4e487b7100000000000000000000000000000000000000000000000000000000600052604160045260246000fd5b6000601f19601f8301169050919050565b61102b81610e5a565b811461103657600080fd5b5056fea26469706673582212200684f74d7117df3b276f6dea5fdd615c0bbca28ef217ce5bbee162bee161c44564736f6c63430008010033",
  "immutableReferences": {},
  "source": "// SPDX-License-Identifier: UNLICENSED\n\npragma solidity ^0.8.0;\n\n// Set of rules to be able to retrieve a customer by their details\n\ncontract InformationStorage {\n    struct Customer {\n        string name;\n        string id_number;\n        address identifier;\n    }\n\n    Customer [] customers;\n\n    // Rules of who can add a customer. Should ideally be an employee\n    // #TODO: Need to set up a modifier to check if the user can access any thing here\n\n    function addCustomer (string memory _name, string memory _id, address _reference) external {\n        customers.push(Customer(_name, _id, _reference));\n    }\n\n    function findByAddress (address _target) external view returns (Customer memory) {\n        Customer memory result;\n        for (uint i = 0; i < customers.length; ++i) {\n            if (customers[i].identifier == _target) {\n                result = customers[i];\n                break;\n            }\n        }\n        return result;\n    }\n\n    // Ideally this should do some regex but this is not possible in Solidity\n    function findByName (string memory _name) external view returns (Customer memory) {\n        Customer memory result;\n        for (uint i = 0; i < customers.length; ++i) {\n            if (keccak256(abi.encodePacked(_name)) == keccak256(abi.encodePacked(customers[i].name)) ) {\n                result = customers[i];\n                break;\n            }\n        }\n        return result;\n    }\n\n    function findById (string memory _id) external view returns (Customer memory) {\n        Customer memory result;\n        for (uint i = 0; i < customers.length; ++i) {\n            if (keccak256(abi.encodePacked(_id)) == keccak256(abi.encodePacked(customers[i].id_number)) ) {\n                result = customers[i];\n                break;\n            }\n        }\n        return result;\n    }\n\n}",
  "sourcePath": "/home/boladji/yamichain/contracts/functions/Customer.sol",
  "compiler": {
    "name": "solc",
    "version": "0.8.1+commit.df193b15.Emscripten.clang"
  },
  "schemaVersion": "3.3.4",
  "updatedAt": "2021-03-12T10:06:24.824Z",
  "devdoc": {
    "kind": "dev",
    "methods": {},
    "version": 1
  },
  "userdoc": {
    "kind": "user",
    "methods": {},
    "version": 1
  }
}