{
  "contractName": "MicroLending",
  "abi": [
    {
      "anonymous": false,
      "inputs": [
        {
          "indexed": true,
          "internalType": "uint256",
          "name": "index",
          "type": "uint256"
        },
        {
          "indexed": true,
          "internalType": "address",
          "name": "account",
          "type": "address"
        },
        {
          "indexed": true,
          "internalType": "address",
          "name": "sender",
          "type": "address"
        }
      ],
      "name": "LoanCreated",
      "type": "event"
    },
    {
      "anonymous": false,
      "inputs": [
        {
          "indexed": true,
          "internalType": "uint256",
          "name": "index",
          "type": "uint256"
        },
        {
          "indexed": true,
          "internalType": "address",
          "name": "account",
          "type": "address"
        },
        {
          "indexed": true,
          "internalType": "address",
          "name": "sender",
          "type": "address"
        }
      ],
      "name": "LoanReimbursed",
      "type": "event"
    },
    {
      "anonymous": false,
      "inputs": [
        {
          "indexed": true,
          "internalType": "address",
          "name": "previousOwner",
          "type": "address"
        },
        {
          "indexed": true,
          "internalType": "address",
          "name": "newOwner",
          "type": "address"
        }
      ],
      "name": "OwnershipTransferred",
      "type": "event"
    },
    {
      "inputs": [],
      "name": "owner",
      "outputs": [
        {
          "internalType": "address",
          "name": "",
          "type": "address"
        }
      ],
      "stateMutability": "view",
      "type": "function"
    },
    {
      "inputs": [],
      "name": "renounceOwnership",
      "outputs": [],
      "stateMutability": "nonpayable",
      "type": "function"
    },
    {
      "inputs": [
        {
          "internalType": "address",
          "name": "newOwner",
          "type": "address"
        }
      ],
      "name": "transferOwnership",
      "outputs": [],
      "stateMutability": "nonpayable",
      "type": "function"
    },
    {
      "inputs": [
        {
          "internalType": "address",
          "name": "_customer",
          "type": "address"
        },
        {
          "internalType": "address",
          "name": "_provider",
          "type": "address"
        },
        {
          "internalType": "uint256",
          "name": "_amount",
          "type": "uint256"
        },
        {
          "internalType": "uint256",
          "name": "interestRate",
          "type": "uint256"
        },
        {
          "internalType": "uint256",
          "name": "_deadline",
          "type": "uint256"
        }
      ],
      "name": "addLoan",
      "outputs": [],
      "stateMutability": "nonpayable",
      "type": "function"
    },
    {
      "inputs": [
        {
          "internalType": "address",
          "name": "_customer",
          "type": "address"
        },
        {
          "internalType": "address",
          "name": "_provider",
          "type": "address"
        },
        {
          "internalType": "uint256",
          "name": "_amount",
          "type": "uint256"
        }
      ],
      "name": "paySettlement",
      "outputs": [],
      "stateMutability": "nonpayable",
      "type": "function"
    },
    {
      "inputs": [
        {
          "internalType": "address",
          "name": "_provider",
          "type": "address"
        },
        {
          "internalType": "address",
          "name": "_customer",
          "type": "address"
        }
      ],
      "name": "getCompleteLoanHistory",
      "outputs": [
        {
          "components": [
            {
              "internalType": "address",
              "name": "providerAddress",
              "type": "address"
            },
            {
              "internalType": "uint256",
              "name": "totalAmount",
              "type": "uint256"
            },
            {
              "internalType": "uint256",
              "name": "totalToPay",
              "type": "uint256"
            },
            {
              "internalType": "uint256",
              "name": "amountReimbursed",
              "type": "uint256"
            },
            {
              "internalType": "uint256",
              "name": "contractedOn",
              "type": "uint256"
            },
            {
              "internalType": "uint256",
              "name": "expectedReimbursementDate",
              "type": "uint256"
            },
            {
              "internalType": "uint256",
              "name": "lastReimbursementDate",
              "type": "uint256"
            }
          ],
          "internalType": "struct MicroLending.Loan[]",
          "name": "",
          "type": "tuple[]"
        }
      ],
      "stateMutability": "view",
      "type": "function"
    },
    {
      "inputs": [
        {
          "internalType": "address",
          "name": "_provider",
          "type": "address"
        },
        {
          "internalType": "address",
          "name": "_customer",
          "type": "address"
        }
      ],
      "name": "getOngoingLoans",
      "outputs": [
        {
          "components": [
            {
              "internalType": "address",
              "name": "providerAddress",
              "type": "address"
            },
            {
              "internalType": "uint256",
              "name": "totalAmount",
              "type": "uint256"
            },
            {
              "internalType": "uint256",
              "name": "totalToPay",
              "type": "uint256"
            },
            {
              "internalType": "uint256",
              "name": "amountReimbursed",
              "type": "uint256"
            },
            {
              "internalType": "uint256",
              "name": "contractedOn",
              "type": "uint256"
            },
            {
              "internalType": "uint256",
              "name": "expectedReimbursementDate",
              "type": "uint256"
            },
            {
              "internalType": "uint256",
              "name": "lastReimbursementDate",
              "type": "uint256"
            }
          ],
          "internalType": "struct MicroLending.Loan[]",
          "name": "",
          "type": "tuple[]"
        }
      ],
      "stateMutability": "view",
      "type": "function"
    },
    {
      "inputs": [
        {
          "internalType": "address",
          "name": "_provider",
          "type": "address"
        },
        {
          "internalType": "address",
          "name": "_customer",
          "type": "address"
        }
      ],
      "name": "getPaidLoans",
      "outputs": [
        {
          "components": [
            {
              "internalType": "address",
              "name": "providerAddress",
              "type": "address"
            },
            {
              "internalType": "uint256",
              "name": "totalAmount",
              "type": "uint256"
            },
            {
              "internalType": "uint256",
              "name": "totalToPay",
              "type": "uint256"
            },
            {
              "internalType": "uint256",
              "name": "amountReimbursed",
              "type": "uint256"
            },
            {
              "internalType": "uint256",
              "name": "contractedOn",
              "type": "uint256"
            },
            {
              "internalType": "uint256",
              "name": "expectedReimbursementDate",
              "type": "uint256"
            },
            {
              "internalType": "uint256",
              "name": "lastReimbursementDate",
              "type": "uint256"
            }
          ],
          "internalType": "struct MicroLending.Loan[]",
          "name": "",
          "type": "tuple[]"
        }
      ],
      "stateMutability": "view",
      "type": "function"
    }
  ],
  "bytecode": "0x608060405234801561001057600080fd5b5060006100216100c460201b60201c565b9050806000806101000a81548173ffffffffffffffffffffffffffffffffffffffff021916908373ffffffffffffffffffffffffffffffffffffffff1602179055508073ffffffffffffffffffffffffffffffffffffffff16600073ffffffffffffffffffffffffffffffffffffffff167f8be0079c531659141344cd1fd0a4f28419497f9722a3daafe3b4186f6b6457e060405160405180910390a3506100cc565b600033905090565b611b95806100db6000396000f3fe608060405234801561001057600080fd5b50600436106100885760003560e01c80638da5cb5b1161005b5780638da5cb5b146101135780639e9c86ad14610131578063e1c3bbdb1461014d578063f2fde38b1461017d57610088565b8063291021a31461008d578063336e9ed0146100a95780634fdd53d2146100d9578063715018a614610109575b600080fd5b6100a760048036038101906100a291906115c0565b610199565b005b6100c360048036038101906100be9190611535565b6104a2565b6040516100d091906117f2565b60405180910390f35b6100f360048036038101906100ee9190611535565b61089b565b60405161010091906117f2565b60405180910390f35b610111610a6f565b005b61011b610ba9565b60405161012891906117d7565b60405180910390f35b61014b60048036038101906101469190611571565b610bd2565b005b61016760048036038101906101629190611535565b610ec4565b60405161017491906117f2565b60405180910390f35b6101976004803603810190610192919061150c565b6112c9565b005b836101a2611472565b60008290508073ffffffffffffffffffffffffffffffffffffffff1663ea66543f836040518263ffffffff1660e01b81526004016101e091906117d7565b60206040518083038186803b1580156101f857600080fd5b505afa15801561020c573d6000803e3d6000fd5b505050506040513d601f19601f820116820180604052508101906102309190611637565b61023957600080fd5b600160008973ffffffffffffffffffffffffffffffffffffffff1673ffffffffffffffffffffffffffffffffffffffff1681526020019081526020016000206040518060e001604052808973ffffffffffffffffffffffffffffffffffffffff168152602001888152602001606489896102b39190611925565b6102bd91906118f4565b896102c8919061189e565b81526020016000815260200142815260200186815260200142815250908060018154018082558091505060019003906000526020600020906007020160009091909190915060008201518160000160006101000a81548173ffffffffffffffffffffffffffffffffffffffff021916908373ffffffffffffffffffffffffffffffffffffffff1602179055506020820151816001015560408201518160020155606082015181600301556080820151816004015560a0820151816005015560c0820151816006015550506001600260008a73ffffffffffffffffffffffffffffffffffffffff1673ffffffffffffffffffffffffffffffffffffffff16815260200190815260200160002060008282546103e2919061189e565b925050819055506103f1611472565b73ffffffffffffffffffffffffffffffffffffffff168873ffffffffffffffffffffffffffffffffffffffff1660018060008c73ffffffffffffffffffffffffffffffffffffffff1673ffffffffffffffffffffffffffffffffffffffff1681526020019081526020016000208054905061046c919061197f565b7f04becb7b619e8066f53084407416e5a2a6e2b3094bf8a5e58607234ac3a8b50360405160405180910390a45050505050505050565b6060826104ad611472565b60008290508073ffffffffffffffffffffffffffffffffffffffff1663ea66543f836040518263ffffffff1660e01b81526004016104eb91906117d7565b60206040518083038186803b15801561050357600080fd5b505afa158015610517573d6000803e3d6000fd5b505050506040513d601f19601f8201168201806040525081019061053b9190611637565b61054457600080fd5b6000600260008773ffffffffffffffffffffffffffffffffffffffff1673ffffffffffffffffffffffffffffffffffffffff16815260200190815260200160002054905060008167ffffffffffffffff8111156105ca577f4e487b7100000000000000000000000000000000000000000000000000000000600052604160045260246000fd5b60405190808252806020026020018201604052801561060357816020015b6105f061147a565b8152602001906001900390816105e85790505b5090506000600160008973ffffffffffffffffffffffffffffffffffffffff1673ffffffffffffffffffffffffffffffffffffffff168152602001908152602001600020805480602002602001604051908101604052809291908181526020016000905b8282101561072b57838290600052602060002090600702016040518060e00160405290816000820160009054906101000a900473ffffffffffffffffffffffffffffffffffffffff1673ffffffffffffffffffffffffffffffffffffffff1673ffffffffffffffffffffffffffffffffffffffff168152602001600182015481526020016002820154815260200160038201548152602001600482015481526020016005820154815260200160068201548152505081526020019060010190610667565b5050505090506000805b82518110801561075057508460018361074e919061197f565b105b1561088a5782818151811061078e577f4e487b7100000000000000000000000000000000000000000000000000000000600052603260045260246000fd5b6020026020010151604001518382815181106107d3577f4e487b7100000000000000000000000000000000000000000000000000000000600052603260045260246000fd5b60200260200101516060015110156108795782818151811061081e577f4e487b7100000000000000000000000000000000000000000000000000000000600052603260045260246000fd5b602002602001015184838151811061085f577f4e487b7100000000000000000000000000000000000000000000000000000000600052603260045260246000fd5b60200260200101819052508180610875906119fb565b9250505b80610883906119fb565b9050610735565b508297505050505050505092915050565b6060826108a6611472565b60008290508073ffffffffffffffffffffffffffffffffffffffff1663ea66543f836040518263ffffffff1660e01b81526004016108e491906117d7565b60206040518083038186803b1580156108fc57600080fd5b505afa158015610910573d6000803e3d6000fd5b505050506040513d601f19601f820116820180604052508101906109349190611637565b61093d57600080fd5b600160008673ffffffffffffffffffffffffffffffffffffffff1673ffffffffffffffffffffffffffffffffffffffff168152602001908152602001600020805480602002602001604051908101604052809291908181526020016000905b82821015610a6057838290600052602060002090600702016040518060e00160405290816000820160009054906101000a900473ffffffffffffffffffffffffffffffffffffffff1673ffffffffffffffffffffffffffffffffffffffff1673ffffffffffffffffffffffffffffffffffffffff16815260200160018201548152602001600282015481526020016003820154815260200160048201548152602001600582015481526020016006820154815250508152602001906001019061099c565b50505050935050505092915050565b610a77611472565b73ffffffffffffffffffffffffffffffffffffffff16610a95610ba9565b73ffffffffffffffffffffffffffffffffffffffff1614610aeb576040517f08c379a0000000000000000000000000000000000000000000000000000000008152600401610ae290611834565b60405180910390fd5b600073ffffffffffffffffffffffffffffffffffffffff1660008054906101000a900473ffffffffffffffffffffffffffffffffffffffff1673ffffffffffffffffffffffffffffffffffffffff167f8be0079c531659141344cd1fd0a4f28419497f9722a3daafe3b4186f6b6457e060405160405180910390a360008060006101000a81548173ffffffffffffffffffffffffffffffffffffffff021916908373ffffffffffffffffffffffffffffffffffffffff160217905550565b60008060009054906101000a900473ffffffffffffffffffffffffffffffffffffffff16905090565b81610bdb611472565b60008290508073ffffffffffffffffffffffffffffffffffffffff1663ea66543f836040518263ffffffff1660e01b8152600401610c1991906117d7565b60206040518083038186803b158015610c3157600080fd5b505afa158015610c45573d6000803e3d6000fd5b505050506040513d601f19601f82011682018060405250810190610c699190611637565b610c7257600080fd5b60005b600160008873ffffffffffffffffffffffffffffffffffffffff1673ffffffffffffffffffffffffffffffffffffffff16815260200190815260200160002080549050811015610ebb576000600160008973ffffffffffffffffffffffffffffffffffffffff1673ffffffffffffffffffffffffffffffffffffffff1681526020019081526020016000208281548110610d38577f4e487b7100000000000000000000000000000000000000000000000000000000600052603260045260246000fd5b906000526020600020906007020190508581600301548260010154610d5d919061197f565b10610ea9578673ffffffffffffffffffffffffffffffffffffffff168160000160009054906101000a900473ffffffffffffffffffffffffffffffffffffffff1673ffffffffffffffffffffffffffffffffffffffff1614610dbe57600080fd5b85816003016000828254610dd2919061189e565b92505081905550806002015481600301541415610ea3576001600260008a73ffffffffffffffffffffffffffffffffffffffff1673ffffffffffffffffffffffffffffffffffffffff1681526020019081526020016000206000828254610e39919061197f565b92505081905550610e48611472565b73ffffffffffffffffffffffffffffffffffffffff168873ffffffffffffffffffffffffffffffffffffffff16837f5689e9994afd1373d08796618dd23f7050dadb47d625ce5b0123a0d52d8b14a660405160405180910390a45b50610ebb565b5080610eb4906119fb565b9050610c75565b50505050505050565b606082610ecf611472565b60008290508073ffffffffffffffffffffffffffffffffffffffff1663ea66543f836040518263ffffffff1660e01b8152600401610f0d91906117d7565b60206040518083038186803b158015610f2557600080fd5b505afa158015610f39573d6000803e3d6000fd5b505050506040513d601f19601f82011682018060405250810190610f5d9190611637565b610f6657600080fd5b6000600160008773ffffffffffffffffffffffffffffffffffffffff1673ffffffffffffffffffffffffffffffffffffffff168152602001908152602001600020805480602002602001604051908101604052809291908181526020016000905b8282101561108b57838290600052602060002090600702016040518060e00160405290816000820160009054906101000a900473ffffffffffffffffffffffffffffffffffffffff1673ffffffffffffffffffffffffffffffffffffffff1673ffffffffffffffffffffffffffffffffffffffff168152602001600182015481526020016002820154815260200160038201548152602001600482015481526020016005820154815260200160068201548152505081526020019060010190610fc7565b5050505090506000600260008873ffffffffffffffffffffffffffffffffffffffff1673ffffffffffffffffffffffffffffffffffffffff1681526020019081526020016000205482516110df919061197f565b905060008167ffffffffffffffff811115611123577f4e487b7100000000000000000000000000000000000000000000000000000000600052604160045260246000fd5b60405190808252806020026020018201604052801561115c57816020015b61114961147a565b8152602001906001900390816111415790505b5090506000805b84518110801561117e57508360018361117c919061197f565b105b156112b8578481815181106111bc577f4e487b7100000000000000000000000000000000000000000000000000000000600052603260045260246000fd5b602002602001015160400151858281518110611201577f4e487b7100000000000000000000000000000000000000000000000000000000600052603260045260246000fd5b60200260200101516060015114156112a75784818151811061124c577f4e487b7100000000000000000000000000000000000000000000000000000000600052603260045260246000fd5b602002602001015183838151811061128d577f4e487b7100000000000000000000000000000000000000000000000000000000600052603260045260246000fd5b602002602001018190525081806112a3906119fb565b9250505b806112b1906119fb565b9050611163565b508197505050505050505092915050565b6112d1611472565b73ffffffffffffffffffffffffffffffffffffffff166112ef610ba9565b73ffffffffffffffffffffffffffffffffffffffff1614611345576040517f08c379a000000000000000000000000000000000000000000000000000000000815260040161133c90611834565b60405180910390fd5b600073ffffffffffffffffffffffffffffffffffffffff168173ffffffffffffffffffffffffffffffffffffffff1614156113b5576040517f08c379a00000000000000000000000000000000000000000000000000000000081526004016113ac90611814565b60405180910390fd5b8073ffffffffffffffffffffffffffffffffffffffff1660008054906101000a900473ffffffffffffffffffffffffffffffffffffffff1673ffffffffffffffffffffffffffffffffffffffff167f8be0079c531659141344cd1fd0a4f28419497f9722a3daafe3b4186f6b6457e060405160405180910390a3806000806101000a81548173ffffffffffffffffffffffffffffffffffffffff021916908373ffffffffffffffffffffffffffffffffffffffff16021790555050565b600033905090565b6040518060e00160405280600073ffffffffffffffffffffffffffffffffffffffff1681526020016000815260200160008152602001600081526020016000815260200160008152602001600081525090565b6000813590506114dc81611b1a565b92915050565b6000815190506114f181611b31565b92915050565b60008135905061150681611b48565b92915050565b60006020828403121561151e57600080fd5b600061152c848285016114cd565b91505092915050565b6000806040838503121561154857600080fd5b6000611556858286016114cd565b9250506020611567858286016114cd565b9150509250929050565b60008060006060848603121561158657600080fd5b6000611594868287016114cd565b93505060206115a5868287016114cd565b92505060406115b6868287016114f7565b9150509250925092565b600080600080600060a086880312156115d857600080fd5b60006115e6888289016114cd565b95505060206115f7888289016114cd565b9450506040611608888289016114f7565b9350506060611619888289016114f7565b925050608061162a888289016114f7565b9150509295509295909350565b60006020828403121561164957600080fd5b6000611657848285016114e2565b91505092915050565b600061166c838361173a565b60e08301905092915050565b611681816119b3565b82525050565b611690816119b3565b82525050565b60006116a182611864565b6116ab818561187c565b93506116b683611854565b8060005b838110156116e75781516116ce8882611660565b97506116d98361186f565b9250506001810190506116ba565b5085935050505092915050565b600061170160268361188d565b915061170c82611aa2565b604082019050919050565b600061172460208361188d565b915061172f82611af1565b602082019050919050565b60e0820160008201516117506000850182611678565b50602082015161176360208501826117c8565b50604082015161177660408501826117c8565b50606082015161178960608501826117c8565b50608082015161179c60808501826117c8565b5060a08201516117af60a08501826117c8565b5060c08201516117c260c08501826117c8565b50505050565b6117d1816119f1565b82525050565b60006020820190506117ec6000830184611687565b92915050565b6000602082019050818103600083015261180c8184611696565b905092915050565b6000602082019050818103600083015261182d816116f4565b9050919050565b6000602082019050818103600083015261184d81611717565b9050919050565b6000819050602082019050919050565b600081519050919050565b6000602082019050919050565b600082825260208201905092915050565b600082825260208201905092915050565b60006118a9826119f1565b91506118b4836119f1565b9250827fffffffffffffffffffffffffffffffffffffffffffffffffffffffffffffffff038211156118e9576118e8611a44565b5b828201905092915050565b60006118ff826119f1565b915061190a836119f1565b92508261191a57611919611a73565b5b828204905092915050565b6000611930826119f1565b915061193b836119f1565b9250817fffffffffffffffffffffffffffffffffffffffffffffffffffffffffffffffff048311821515161561197457611973611a44565b5b828202905092915050565b600061198a826119f1565b9150611995836119f1565b9250828210156119a8576119a7611a44565b5b828203905092915050565b60006119be826119d1565b9050919050565b60008115159050919050565b600073ffffffffffffffffffffffffffffffffffffffff82169050919050565b6000819050919050565b6000611a06826119f1565b91507fffffffffffffffffffffffffffffffffffffffffffffffffffffffffffffffff821415611a3957611a38611a44565b5b600182019050919050565b7f4e487b7100000000000000000000000000000000000000000000000000000000600052601160045260246000fd5b7f4e487b7100000000000000000000000000000000000000000000000000000000600052601260045260246000fd5b7f4f776e61626c653a206e6577206f776e657220697320746865207a65726f206160008201527f6464726573730000000000000000000000000000000000000000000000000000602082015250565b7f4f776e61626c653a2063616c6c6572206973206e6f7420746865206f776e6572600082015250565b611b23816119b3565b8114611b2e57600080fd5b50565b611b3a816119c5565b8114611b4557600080fd5b50565b611b51816119f1565b8114611b5c57600080fd5b5056fea26469706673582212206e6222cb4f322343ac0759eae0ff1dc1fcabbca9d3a0e7040214fc4ac1a829a264736f6c63430008010033",
  "immutableReferences": {},
  "source": "// SPDX-License-Identifier: UNLICENSED\n\npragma solidity ^0.8.0;\n\nimport '../access/Ownable.sol';\nimport './Provider.sol';\n\ncontract MicroLending is Ownable {\n\n    struct Loan {\n        address providerAddress;\n        uint totalAmount;\n        uint totalToPay;\n        uint amountReimbursed;\n        uint contractedOn;\n        uint expectedReimbursementDate;\n        uint lastReimbursementDate;\n    }\n\n    modifier agentOf(address _provider, address _user) {\n        Provider provider = Provider(_provider);\n        require (provider.isEmployee(_user));\n        _;\n    }\n\n    mapping (address => Loan[]) private loans;\n    mapping (address => uint) private ongoingLoanCounts;\n\n    event LoanCreated(uint indexed index, address indexed account, address indexed sender);\n    event LoanReimbursed(uint indexed index, address indexed account, address indexed sender);\n\n    // Interest rate in %\n    function addLoan (address _customer, address _provider, uint _amount, uint interestRate, uint _deadline) external agentOf(_provider, _msgSender()){\n\n        loans[_customer].push(Loan(_provider, _amount, _amount + (interestRate * _amount)/100, 0, block.timestamp, _deadline, block.timestamp));\n        ongoingLoanCounts[_customer] += 1;\n        emit LoanCreated(loans[_customer].length - 1, _customer, _msgSender());\n    }\n\n    function paySettlement (address _customer, address _provider, uint _amount) external agentOf(_provider, _msgSender()) {\n        // Let us just loop the array and update once. We assume a provider cannot \n        // have two unpaid loans for a customer\n        for (uint i = 0; i < loans[_customer].length; ++i) {\n            Loan storage record = loans[_customer][i];\n           if (record.totalAmount - record.amountReimbursed >= _amount) {\n               // Only the provider can request for the payment\n               require(record.providerAddress == _provider);\n               record.amountReimbursed += _amount;\n               if (record.amountReimbursed == record.totalToPay) {\n                   ongoingLoanCounts[_customer] -= 1;\n                   emit LoanReimbursed(i, _customer, _msgSender());\n               }\n               break;\n           }\n        }\n    }\n\n    function getCompleteLoanHistory (address _provider, address _customer) external view agentOf(_provider, _msgSender()) returns (Loan [] memory){\n        return loans[_customer];\n    }\n\n    function getOngoingLoans (address _provider, address _customer) external view agentOf(_provider, _msgSender()) returns (Loan [] memory){\n        uint _count = ongoingLoanCounts[_customer];\n        Loan [] memory records = new Loan[](_count);\n        Loan [] memory history = loans[_customer];\n\n        uint j = 0;\n        for (uint i = 0; i < history.length && j - 1 < _count; ++i) {\n            if (history[i].amountReimbursed < history[i].totalToPay) {\n                records[j] = history[i];\n                j++;\n            }\n        }\n        return records;\n    }\n\n    function getPaidLoans (address _provider, address _customer) external view agentOf(_provider, _msgSender()) returns (Loan [] memory){\n        Loan [] memory history = loans[_customer];\n        uint _count = history.length - ongoingLoanCounts[_customer];\n        Loan [] memory records = new Loan[](_count);\n\n        uint j = 0;\n        for (uint i = 0; i < history.length && j - 1 < _count; ++i) {\n            if (history[i].amountReimbursed == history[i].totalToPay) {\n                records[j] = history[i];\n                j++;\n            }\n        }\n        return records;\n    }\n}",
  "sourcePath": "/home/boladji/yamichain/contracts/functions/Lending.sol",
  "compiler": {
    "name": "solc",
    "version": "0.8.1+commit.df193b15.Emscripten.clang"
  },
  "schemaVersion": "3.3.4",
  "updatedAt": "2021-03-12T10:06:24.828Z",
  "devdoc": {
    "kind": "dev",
    "methods": {
      "owner()": {
        "details": "Returns the address of the current owner."
      },
      "renounceOwnership()": {
        "details": "Leaves the contract without owner. It will not be possible to call `onlyOwner` functions anymore. Can only be called by the current owner. NOTE: Renouncing ownership will leave the contract without an owner, thereby removing any functionality that is only available to the owner."
      },
      "transferOwnership(address)": {
        "details": "Transfers ownership of the contract to a new account (`newOwner`). Can only be called by the current owner."
      }
    },
    "version": 1
  },
  "userdoc": {
    "kind": "user",
    "methods": {},
    "version": 1
  }
}