{
  "contractName": "Provider",
  "abi": [
    {
      "anonymous": false,
      "inputs": [
        {
          "indexed": true,
          "internalType": "address",
          "name": "previousOwner",
          "type": "address"
        },
        {
          "indexed": true,
          "internalType": "address",
          "name": "newOwner",
          "type": "address"
        }
      ],
      "name": "OwnershipTransferred",
      "type": "event"
    },
    {
      "anonymous": false,
      "inputs": [
        {
          "indexed": true,
          "internalType": "bytes32",
          "name": "role",
          "type": "bytes32"
        },
        {
          "indexed": true,
          "internalType": "bytes32",
          "name": "previousAdminRole",
          "type": "bytes32"
        },
        {
          "indexed": true,
          "internalType": "bytes32",
          "name": "newAdminRole",
          "type": "bytes32"
        }
      ],
      "name": "RoleAdminChanged",
      "type": "event"
    },
    {
      "anonymous": false,
      "inputs": [
        {
          "indexed": true,
          "internalType": "bytes32",
          "name": "role",
          "type": "bytes32"
        },
        {
          "indexed": true,
          "internalType": "address",
          "name": "account",
          "type": "address"
        },
        {
          "indexed": true,
          "internalType": "address",
          "name": "sender",
          "type": "address"
        }
      ],
      "name": "RoleGranted",
      "type": "event"
    },
    {
      "anonymous": false,
      "inputs": [
        {
          "indexed": true,
          "internalType": "bytes32",
          "name": "role",
          "type": "bytes32"
        },
        {
          "indexed": true,
          "internalType": "address",
          "name": "account",
          "type": "address"
        },
        {
          "indexed": true,
          "internalType": "address",
          "name": "sender",
          "type": "address"
        }
      ],
      "name": "RoleRevoked",
      "type": "event"
    },
    {
      "inputs": [],
      "name": "DEFAULT_ADMIN_ROLE",
      "outputs": [
        {
          "internalType": "bytes32",
          "name": "",
          "type": "bytes32"
        }
      ],
      "stateMutability": "view",
      "type": "function"
    },
    {
      "inputs": [],
      "name": "EDITING_ROLE",
      "outputs": [
        {
          "internalType": "bytes32",
          "name": "",
          "type": "bytes32"
        }
      ],
      "stateMutability": "view",
      "type": "function"
    },
    {
      "inputs": [
        {
          "internalType": "bytes32",
          "name": "role",
          "type": "bytes32"
        }
      ],
      "name": "getRoleAdmin",
      "outputs": [
        {
          "internalType": "bytes32",
          "name": "",
          "type": "bytes32"
        }
      ],
      "stateMutability": "view",
      "type": "function"
    },
    {
      "inputs": [
        {
          "internalType": "bytes32",
          "name": "role",
          "type": "bytes32"
        },
        {
          "internalType": "address",
          "name": "account",
          "type": "address"
        }
      ],
      "name": "grantRole",
      "outputs": [],
      "stateMutability": "nonpayable",
      "type": "function"
    },
    {
      "inputs": [
        {
          "internalType": "bytes32",
          "name": "role",
          "type": "bytes32"
        },
        {
          "internalType": "address",
          "name": "account",
          "type": "address"
        }
      ],
      "name": "hasRole",
      "outputs": [
        {
          "internalType": "bool",
          "name": "",
          "type": "bool"
        }
      ],
      "stateMutability": "view",
      "type": "function"
    },
    {
      "inputs": [],
      "name": "owner",
      "outputs": [
        {
          "internalType": "address",
          "name": "",
          "type": "address"
        }
      ],
      "stateMutability": "view",
      "type": "function"
    },
    {
      "inputs": [],
      "name": "renounceOwnership",
      "outputs": [],
      "stateMutability": "nonpayable",
      "type": "function"
    },
    {
      "inputs": [
        {
          "internalType": "bytes32",
          "name": "role",
          "type": "bytes32"
        },
        {
          "internalType": "address",
          "name": "account",
          "type": "address"
        }
      ],
      "name": "renounceRole",
      "outputs": [],
      "stateMutability": "nonpayable",
      "type": "function"
    },
    {
      "inputs": [
        {
          "internalType": "bytes32",
          "name": "role",
          "type": "bytes32"
        },
        {
          "internalType": "address",
          "name": "account",
          "type": "address"
        }
      ],
      "name": "revokeRole",
      "outputs": [],
      "stateMutability": "nonpayable",
      "type": "function"
    },
    {
      "inputs": [
        {
          "internalType": "address",
          "name": "newOwner",
          "type": "address"
        }
      ],
      "name": "transferOwnership",
      "outputs": [],
      "stateMutability": "nonpayable",
      "type": "function"
    },
    {
      "inputs": [
        {
          "internalType": "address",
          "name": "_account",
          "type": "address"
        }
      ],
      "name": "addEmployee",
      "outputs": [],
      "stateMutability": "nonpayable",
      "type": "function"
    },
    {
      "inputs": [
        {
          "internalType": "address",
          "name": "_account",
          "type": "address"
        }
      ],
      "name": "removeEmployee",
      "outputs": [],
      "stateMutability": "nonpayable",
      "type": "function"
    },
    {
      "inputs": [
        {
          "internalType": "address",
          "name": "_address",
          "type": "address"
        }
      ],
      "name": "isEmployee",
      "outputs": [
        {
          "internalType": "bool",
          "name": "",
          "type": "bool"
        }
      ],
      "stateMutability": "view",
      "type": "function"
    }
  ],
  "bytecode": "0x608060405234801561001057600080fd5b5060006100216100c460201b60201c565b9050806000806101000a81548173ffffffffffffffffffffffffffffffffffffffff021916908373ffffffffffffffffffffffffffffffffffffffff1602179055508073ffffffffffffffffffffffffffffffffffffffff16600073ffffffffffffffffffffffffffffffffffffffff167f8be0079c531659141344cd1fd0a4f28419497f9722a3daafe3b4186f6b6457e060405160405180910390a3506100cc565b600033905090565b610eab806100db6000396000f3fe608060405234801561001057600080fd5b50600436106100cf5760003560e01c806391d148541161008c578063d547741f11610066578063d547741f146101ec578063ea66543f14610208578063f2fde38b14610238578063f3cb8c3114610254576100cf565b806391d1485414610182578063a217fddf146101b2578063d108177a146101d0576100cf565b8063248a9ca3146100d45780632a4f4c73146101045780632f2ff15d1461012257806336568abe1461013e578063715018a61461015a5780638da5cb5b14610164575b600080fd5b6100ee60048036038101906100e99190610a57565b610270565b6040516100fb9190610bce565b60405180910390f35b61010c610290565b6040516101199190610bce565b60405180910390f35b61013c60048036038101906101379190610a80565b6102b4565b005b61015860048036038101906101539190610a80565b61031a565b005b61016261039d565b005b61016c6104d7565b6040516101799190610b98565b60405180910390f35b61019c60048036038101906101979190610a80565b610500565b6040516101a99190610bb3565b60405180910390f35b6101ba61056b565b6040516101c79190610bce565b60405180910390f35b6101ea60048036038101906101e59190610a2e565b610572565b005b61020660048036038101906102019190610a80565b6105b5565b005b610222600480360381019061021d9190610a2e565b61061b565b60405161022f9190610bb3565b60405180910390f35b610252600480360381019061024d9190610a2e565b61064e565b005b61026e60048036038101906102699190610a2e565b6107f7565b005b600060016000838152602001908152602001600020600101549050919050565b7fcc76399927b9ab3b5b475a4b2d7415e8dbf4522a7bf10e0135ee53b2054041ea81565b6102cd6102c083610270565b6102c861083a565b610500565b61030c576040517f08c379a000000000000000000000000000000000000000000000000000000000815260040161030390610be9565b60405180910390fd5b6103168282610842565b5050565b61032261083a565b73ffffffffffffffffffffffffffffffffffffffff168173ffffffffffffffffffffffffffffffffffffffff161461038f576040517f08c379a000000000000000000000000000000000000000000000000000000000815260040161038690610c69565b60405180910390fd5b6103998282610922565b5050565b6103a561083a565b73ffffffffffffffffffffffffffffffffffffffff166103c36104d7565b73ffffffffffffffffffffffffffffffffffffffff1614610419576040517f08c379a000000000000000000000000000000000000000000000000000000000815260040161041090610c49565b60405180910390fd5b600073ffffffffffffffffffffffffffffffffffffffff1660008054906101000a900473ffffffffffffffffffffffffffffffffffffffff1673ffffffffffffffffffffffffffffffffffffffff167f8be0079c531659141344cd1fd0a4f28419497f9722a3daafe3b4186f6b6457e060405160405180910390a360008060006101000a81548173ffffffffffffffffffffffffffffffffffffffff021916908373ffffffffffffffffffffffffffffffffffffffff160217905550565b60008060009054906101000a900473ffffffffffffffffffffffffffffffffffffffff16905090565b60006001600084815260200190815260200160002060000160008373ffffffffffffffffffffffffffffffffffffffff1673ffffffffffffffffffffffffffffffffffffffff16815260200190815260200160002060009054906101000a900460ff16905092915050565b6000801b81565b61057f6000801b33610500565b61058857600080fd5b6105b27fcc76399927b9ab3b5b475a4b2d7415e8dbf4522a7bf10e0135ee53b2054041ea826105b5565b50565b6105ce6105c183610270565b6105c961083a565b610500565b61060d576040517f08c379a000000000000000000000000000000000000000000000000000000000815260040161060490610c29565b60405180910390fd5b6106178282610922565b5050565b60006106477fcc76399927b9ab3b5b475a4b2d7415e8dbf4522a7bf10e0135ee53b2054041ea83610500565b9050919050565b61065661083a565b73ffffffffffffffffffffffffffffffffffffffff166106746104d7565b73ffffffffffffffffffffffffffffffffffffffff16146106ca576040517f08c379a00000000000000000000000000000000000000000000000000000000081526004016106c190610c49565b60405180910390fd5b600073ffffffffffffffffffffffffffffffffffffffff168173ffffffffffffffffffffffffffffffffffffffff16141561073a576040517f08c379a000000000000000000000000000000000000000000000000000000000815260040161073190610c09565b60405180910390fd5b8073ffffffffffffffffffffffffffffffffffffffff1660008054906101000a900473ffffffffffffffffffffffffffffffffffffffff1673ffffffffffffffffffffffffffffffffffffffff167f8be0079c531659141344cd1fd0a4f28419497f9722a3daafe3b4186f6b6457e060405160405180910390a3806000806101000a81548173ffffffffffffffffffffffffffffffffffffffff021916908373ffffffffffffffffffffffffffffffffffffffff16021790555050565b6108046000801b33610500565b61080d57600080fd5b6108377fcc76399927b9ab3b5b475a4b2d7415e8dbf4522a7bf10e0135ee53b2054041ea826102b4565b50565b600033905090565b61084c8282610500565b61091e57600180600084815260200190815260200160002060000160008373ffffffffffffffffffffffffffffffffffffffff1673ffffffffffffffffffffffffffffffffffffffff16815260200190815260200160002060006101000a81548160ff0219169083151502179055506108c361083a565b73ffffffffffffffffffffffffffffffffffffffff168173ffffffffffffffffffffffffffffffffffffffff16837f2f8788117e7eff1d82e926ec794901d17c78024a50270940304540a733656f0d60405160405180910390a45b5050565b61092c8282610500565b15610a005760006001600084815260200190815260200160002060000160008373ffffffffffffffffffffffffffffffffffffffff1673ffffffffffffffffffffffffffffffffffffffff16815260200190815260200160002060006101000a81548160ff0219169083151502179055506109a561083a565b73ffffffffffffffffffffffffffffffffffffffff168173ffffffffffffffffffffffffffffffffffffffff16837ff6391f5c32d9c69d2a47ea670b442974b53935d1edc7fd64eb21e047a839171b60405160405180910390a45b5050565b600081359050610a1381610e47565b92915050565b600081359050610a2881610e5e565b92915050565b600060208284031215610a4057600080fd5b6000610a4e84828501610a04565b91505092915050565b600060208284031215610a6957600080fd5b6000610a7784828501610a19565b91505092915050565b60008060408385031215610a9357600080fd5b6000610aa185828601610a19565b9250506020610ab285828601610a04565b9150509250929050565b610ac581610c9a565b82525050565b610ad481610cac565b82525050565b610ae381610cb8565b82525050565b6000610af6602f83610c89565b9150610b0182610ce2565b604082019050919050565b6000610b19602683610c89565b9150610b2482610d31565b604082019050919050565b6000610b3c603083610c89565b9150610b4782610d80565b604082019050919050565b6000610b5f602083610c89565b9150610b6a82610dcf565b602082019050919050565b6000610b82602f83610c89565b9150610b8d82610df8565b604082019050919050565b6000602082019050610bad6000830184610abc565b92915050565b6000602082019050610bc86000830184610acb565b92915050565b6000602082019050610be36000830184610ada565b92915050565b60006020820190508181036000830152610c0281610ae9565b9050919050565b60006020820190508181036000830152610c2281610b0c565b9050919050565b60006020820190508181036000830152610c4281610b2f565b9050919050565b60006020820190508181036000830152610c6281610b52565b9050919050565b60006020820190508181036000830152610c8281610b75565b9050919050565b600082825260208201905092915050565b6000610ca582610cc2565b9050919050565b60008115159050919050565b6000819050919050565b600073ffffffffffffffffffffffffffffffffffffffff82169050919050565b7f416363657373436f6e74726f6c3a2073656e646572206d75737420626520616e60008201527f2061646d696e20746f206772616e740000000000000000000000000000000000602082015250565b7f4f776e61626c653a206e6577206f776e657220697320746865207a65726f206160008201527f6464726573730000000000000000000000000000000000000000000000000000602082015250565b7f416363657373436f6e74726f6c3a2073656e646572206d75737420626520616e60008201527f2061646d696e20746f207265766f6b6500000000000000000000000000000000602082015250565b7f4f776e61626c653a2063616c6c6572206973206e6f7420746865206f776e6572600082015250565b7f416363657373436f6e74726f6c3a2063616e206f6e6c792072656e6f756e636560008201527f20726f6c657320666f722073656c660000000000000000000000000000000000602082015250565b610e5081610c9a565b8114610e5b57600080fd5b50565b610e6781610cb8565b8114610e7257600080fd5b5056fea26469706673582212208b919fe0068397d647ca84e556b447d57e5e6ad5a69f31fc40460a5427e6e1cb64736f6c63430008010033",
  "immutableReferences": {},
  "source": "// SPDX-License-Identifier: UNLICENSED\n\npragma solidity ^0.8.0;\n\nimport '../access/Ownable.sol';\nimport '../access/AccessControl.sol';\n\ncontract Provider is Ownable, AccessControl {\n    AccessControl.RoleData private _readers;\n    AccessControl.RoleData private _editors;\n    \n    bytes32 public constant EDITING_ROLE = keccak256(\"EDITING_ROLE\");\n\n    modifier onlyAdmin (){\n        require(hasRole(DEFAULT_ADMIN_ROLE, msg.sender));\n        _;\n    }\n\n    function addEmployee(address _account) external onlyAdmin {\n        // We add a new employee to the contract (the organization)\n        grantRole(EDITING_ROLE, _account);\n    }\n\n    function removeEmployee (address _account) external onlyAdmin{\n        // We remove an employee from the organization\n        // Here we will just remove the access rights since looping through the array will be costly\n        revokeRole(EDITING_ROLE, _account);\n    }\n\n    // Should this remain here or should we change the access rights?\n    function isEmployee (address _address) external view returns (bool) {\n        return hasRole(EDITING_ROLE, _address);\n    }\n\n    // Wanted to implement this function but we can actually call it directly from the main contract.\n\n    // function checkCustomerRecords (address _customer, string memory _type='full') external view {\n\n    // }\n    \n}",
  "sourcePath": "/home/boladji/yamichain/contracts/functions/Provider.sol",
  "compiler": {
    "name": "solc",
    "version": "0.8.1+commit.df193b15.Emscripten.clang"
  },
  "schemaVersion": "3.3.4",
  "updatedAt": "2021-03-12T10:06:24.835Z",
  "devdoc": {
    "kind": "dev",
    "methods": {
      "getRoleAdmin(bytes32)": {
        "details": "Returns the admin role that controls `role`. See {grantRole} and {revokeRole}. To change a role's admin, use {_setRoleAdmin}."
      },
      "grantRole(bytes32,address)": {
        "details": "Grants `role` to `account`. If `account` had not been already granted `role`, emits a {RoleGranted} event. Requirements: - the caller must have ``role``'s admin role."
      },
      "hasRole(bytes32,address)": {
        "details": "Returns `true` if `account` has been granted `role`."
      },
      "owner()": {
        "details": "Returns the address of the current owner."
      },
      "renounceOwnership()": {
        "details": "Leaves the contract without owner. It will not be possible to call `onlyOwner` functions anymore. Can only be called by the current owner. NOTE: Renouncing ownership will leave the contract without an owner, thereby removing any functionality that is only available to the owner."
      },
      "renounceRole(bytes32,address)": {
        "details": "Revokes `role` from the calling account. Roles are often managed via {grantRole} and {revokeRole}: this function's purpose is to provide a mechanism for accounts to lose their privileges if they are compromised (such as when a trusted device is misplaced). If the calling account had been granted `role`, emits a {RoleRevoked} event. Requirements: - the caller must be `account`."
      },
      "revokeRole(bytes32,address)": {
        "details": "Revokes `role` from `account`. If `account` had been granted `role`, emits a {RoleRevoked} event. Requirements: - the caller must have ``role``'s admin role."
      },
      "transferOwnership(address)": {
        "details": "Transfers ownership of the contract to a new account (`newOwner`). Can only be called by the current owner."
      }
    },
    "version": 1
  },
  "userdoc": {
    "kind": "user",
    "methods": {},
    "version": 1
  }
}